{
  "contractName": "NiftyWallet",
  "abi": [
    {
      "payable": true,
      "stateMutability": "payable",
      "type": "fallback"
    },
    {
      "anonymous": false,
      "inputs": [
        {
          "indexed": true,
          "name": "destinationAddress",
          "type": "address"
        },
        {
          "indexed": false,
          "name": "value",
          "type": "uint256"
        },
        {
          "indexed": false,
          "name": "txData",
          "type": "bytes"
        }
      ],
      "name": "Execution",
      "type": "event"
    },
    {
      "anonymous": false,
      "inputs": [
        {
          "indexed": true,
          "name": "destinationAddress",
          "type": "address"
        },
        {
          "indexed": false,
          "name": "value",
          "type": "uint256"
        },
        {
          "indexed": false,
          "name": "txData",
          "type": "bytes"
        }
      ],
      "name": "ExecutionFailure",
      "type": "event"
    },
    {
      "anonymous": false,
      "inputs": [
        {
          "indexed": true,
          "name": "sender",
          "type": "address"
        },
        {
          "indexed": false,
          "name": "value",
          "type": "uint256"
        }
      ],
      "name": "Deposit",
      "type": "event"
    },
    {
      "constant": true,
      "inputs": [],
      "name": "returnUserAccountAddress",
      "outputs": [
        {
          "name": "",
          "type": "address"
        }
      ],
      "payable": false,
      "stateMutability": "view",
      "type": "function"
    },
    {
      "constant": true,
      "inputs": [],
      "name": "returnWalletTxCount",
      "outputs": [
        {
          "name": "",
          "type": "uint256"
        }
      ],
      "payable": false,
      "stateMutability": "view",
      "type": "function"
    },
    {
      "constant": false,
      "inputs": [
        {
          "name": "_signedData",
          "type": "bytes"
        },
        {
          "name": "destination",
          "type": "address"
        },
        {
          "name": "value",
          "type": "uint256"
        },
        {
          "name": "data",
          "type": "bytes"
        }
      ],
      "name": "callTx",
      "outputs": [
        {
          "name": "",
          "type": "bool"
        }
      ],
      "payable": false,
      "stateMutability": "nonpayable",
      "type": "function"
    }
  ],
  "bytecode": "0x608060405273de2d9906b516bfb62559676e180c7731679429c96000806101000a81548173ffffffffffffffffffffffffffffffffffffffff021916908373ffffffffffffffffffffffffffffffffffffffff1602179055506000600155600060025534801561006e57600080fd5b50610af08061007e6000396000f3fe608060405260043610610051576000357c01000000000000000000000000000000000000000000000000000000009004806361515334146101a95780636d9b501a146102005780636de725a31461022b575b60003411156100ad573373ffffffffffffffffffffffffffffffffffffffff167fe1fffcc4923d04b559f4d29a8bfc6cda04eb5b0d3c460751c2402c5c5cc9109c346040518082815260200191505060405180910390a26101a7565b60008036905011156101a65760008060009054906101000a900473ffffffffffffffffffffffffffffffffffffffff16905060008173ffffffffffffffffffffffffffffffffffffffff1663b0bb7ebd6040518163ffffffff167c010000000000000000000000000000000000000000000000000000000002815260040160206040518083038186803b15801561014357600080fd5b505afa158015610157573d6000803e3d6000fd5b505050506040513d602081101561016d57600080fd5b810190808051906020019092919050505090503660008037600080366000845afa3d6000803e80600081146101a1573d6000f35b3d6000fd5b5b005b3480156101b557600080fd5b506101be6103cc565b604051808273ffffffffffffffffffffffffffffffffffffffff1673ffffffffffffffffffffffffffffffffffffffff16815260200191505060405180910390f35b34801561020c57600080fd5b506102156104a3565b6040518082815260200191505060405180910390f35b34801561023757600080fd5b506103b26004803603608081101561024e57600080fd5b810190808035906020019064010000000081111561026b57600080fd5b82018360208201111561027d57600080fd5b8035906020019184600183028401116401000000008311171561029f57600080fd5b91908080601f016020809104026020016040519081016040528093929190818152602001838380828437600081840152601f19601f820116905080830192505050505050509192919290803573ffffffffffffffffffffffffffffffffffffffff169060200190929190803590602001909291908035906020019064010000000081111561032c57600080fd5b82018360208201111561033e57600080fd5b8035906020019184600183028401116401000000008311171561036057600080fd5b91908080601f016020809104026020016040519081016040528093929190818152602001838380828437600081840152601f19601f8201169050808301925050505050505091929192905050506104ad565b604051808215151515815260200191505060405180910390f35b6000806000809054906101000a900473ffffffffffffffffffffffffffffffffffffffff1690508073ffffffffffffffffffffffffffffffffffffffff1663ec9614a16001546040518263ffffffff167c01000000000000000000000000000000000000000000000000000000000281526004018082815260200191505060206040518083038186803b15801561046257600080fd5b505afa158015610476573d6000803e3d6000fd5b505050506040513d602081101561048c57600080fd5b810190808051906020019092919050505091505090565b6000600254905090565b6000806000809054906101000a900473ffffffffffffffffffffffffffffffffffffffff169050600115158173ffffffffffffffffffffffffffffffffffffffff1663d9ea7ed5336040518263ffffffff167c0100000000000000000000000000000000000000000000000000000000028152600401808273ffffffffffffffffffffffffffffffffffffffff1673ffffffffffffffffffffffffffffffffffffffff16815260200191505060206040518083038186803b15801561057157600080fd5b505afa158015610585573d6000803e3d6000fd5b505050506040513d602081101561059b57600080fd5b810190808051906020019092919050505015151415156105ba57600080fd5b60006105c46103cc565b905060008060009054906101000a900473ffffffffffffffffffffffffffffffffffffffff16905060006105f986898961090d565b905060008273ffffffffffffffffffffffffffffffffffffffff166319045a25838c6040518363ffffffff167c01000000000000000000000000000000000000000000000000000000000281526004018083815260200180602001828103825283818151815260200191508051906020019080838360005b8381101561068c578082015181840152602081019050610671565b50505050905090810190601f1680156106b95780820380516001836020036101000a031916815260200191505b50935050505060206040518083038186803b1580156106d757600080fd5b505afa1580156106eb573d6000803e3d6000fd5b505050506040513d602081101561070157600080fd5b810190808051906020019092919050505090508373ffffffffffffffffffffffffffffffffffffffff168173ffffffffffffffffffffffffffffffffffffffff1614156108fb57610755898989518a610a41565b15610826578873ffffffffffffffffffffffffffffffffffffffff167f39f46e1dedea184144e3feaf4e595d78345d9a9d8b43da87912efbe4df3c8a3189896040518083815260200180602001828103825283818151815260200191508051906020019080838360005b838110156107da5780820151818401526020810190506107bf565b50505050905090810190601f1680156108075780820380516001836020036101000a031916815260200191505b50935050505060405180910390a26001600254016002819055506108ee565b8873ffffffffffffffffffffffffffffffffffffffff167f8d1ecf04e6462600e647fec505da5fb931c5d7e2c8171df5f6629beab50ec07f89896040518083815260200180602001828103825283818151815260200191508051906020019080838360005b838110156108a657808201518184015260208101905061088b565b50505050905090810190601f1680156108d35780820380516001836020036101000a031916815260200191505b50935050505060405180910390a26001600254016002819055505b6001955050505050610904565b60009550505050505b50949350505050565b6000610917610a68565b60a0604051908101604052803073ffffffffffffffffffffffffffffffffffffffff1681526020018573ffffffffffffffffffffffffffffffffffffffff168152602001848152602001600254815260200186815250905080600001518160800151604051602001808373ffffffffffffffffffffffffffffffffffffffff1673ffffffffffffffffffffffffffffffffffffffff16815260200180602001828103825283818151815260200191508051906020019080838360005b838110156109ee5780820151818401526020810190506109d3565b50505050905090810190601f168015610a1b5780820380516001836020036101000a031916815260200191505b509350505050604051602081830303815290604052805190602001209150509392505050565b6000806040516020840160008287838a8c6187965a03f19250505080915050949350505050565b60a060405190810160405280600073ffffffffffffffffffffffffffffffffffffffff168152602001600073ffffffffffffffffffffffffffffffffffffffff168152602001600081526020016000815260200160608152509056fea165627a7a72305820c46b09bb1537e239a8ce22ed56e741cbb02e159dad4742d38d8a305d172a427b0029",
  "source": "pragma solidity ^0.5.4;\n\ncontract NiftyWallet {\n\n    /**\n     * Constants\n     * The address of the master contract, and the account ID for this wallet\n     * Account ID is used to retrieve the signing private key for this wallet\n     */\n\n    address masterContractAdd = 0xdE2D9906B516bFB62559676E180c7731679429C9;\n    uint userAccountID = 0;\n    uint walletTxCount = 0;\n\n    /**\n    / Events\n    */\n\n    event Execution(address indexed destinationAddress, uint value, bytes txData);\n    event ExecutionFailure(address indexed destinationAddress, uint value, bytes txData);\n    event Deposit(address indexed sender, uint value);\n\n    /**\n    * @dev returns signing private key that controls this wallet\n    */\n\n    function returnUserAccountAddress() public view returns(address) {\n        MasterContract m_c_instance = MasterContract(masterContractAdd);\n        return (m_c_instance.returnUserControlAddress(userAccountID));\n    }\n\n    function returnWalletTxCount() public view returns(uint) {\n        return(walletTxCount);\n    }\n\n    /**\n     * Modifier to check msg.sender\n     */\n\n    modifier onlyValidSender() {\n        MasterContract m_c_instance = MasterContract(masterContractAdd);\n        require(m_c_instance.returnIsValidSendingKey(msg.sender) == true);\n        _;\n      }\n\n    /**\n     * @dev struct to combine contract address with transaction data\n     */\n\n    struct mStruct {\n        address this_add;\n        address des_add;\n        uint value;\n        uint interalTxCount;\n        bytes txData;\n    }\n\n    /**\n     * @dev internal function to recreate message that has been signed off chain\n     * @dev the message is a concatenation of this contracts address and transaction data\n     * @dev contract address is included to make sure a transaction signature from one smart contract wallet cannot be reused by another\n     * @param txData bytes - txData to hash alongside address\n     */\n\n    function returnTxMessageToSign(bytes memory txData,\n                                address des_add,\n                                uint value) private view returns(bytes32) {\n        mStruct memory message = mStruct(address(this), des_add, value, walletTxCount, txData);\n        return keccak256(abi.encode(message.this_add, message.txData));\n    }\n\n    /**\n     * Fall back function - get paid and static calls\n     */\n\n    function()\n        payable\n        external\n    {\n        if (msg.value > 0)\n            emit Deposit(msg.sender, msg.value);\n        else if (msg.data.length > 0) {\n            //static call\n            MasterContract m_c_instance = MasterContract(masterContractAdd);\n            address loc =  (m_c_instance.returnStaticContractAddress());\n                assembly {\n                    calldatacopy(0, 0, calldatasize())\n                    let result := staticcall(gas, loc, 0, calldatasize(), 0, 0)\n                    returndatacopy(0, 0, returndatasize())\n                    switch result\n                    case 0 {revert(0, returndatasize())}\n                    default {return (0, returndatasize())}\n                }\n        }\n    }\n\n    /**\n     * @dev function to call any on chain transaction\n     * @dev verifies that the transaction data has been signed by the wallets controlling private key\n     * @dev and that the transaction has been sent from an approved sending wallet\n     * @param  _signedData bytes - signature of txData + wallet address\n     * @param destination address - destination for this transaction\n     * @param value uint - value of this transaction\n     * @param data bytes - transaction data\n     */\n\n    function callTx(bytes memory _signedData,\n                     address destination,\n                     uint value,\n                     bytes memory data)\n    public onlyValidSender returns (bool) {\n        address userSigningAddress = returnUserAccountAddress();\n        MasterContract m_c_instance = MasterContract(masterContractAdd);\n        bytes32 dataHash = returnTxMessageToSign(data, destination, value);\n        address recoveredAddress = m_c_instance.recover(dataHash, _signedData);\n        if (recoveredAddress==userSigningAddress) {\n            if (external_call(destination, value, data.length, data)) {\n                emit Execution(destination, value, data);\n                walletTxCount = walletTxCount + 1;\n            } else {\n                emit ExecutionFailure(destination, value, data);\n                walletTxCount = walletTxCount +1;\n            }\n            return(true);\n        } else {\n            return(false);\n        }\n    }\n\n    /** External call function\n     * Taken from Gnosis Mutli Sig wallet\n     * https://github.com/gnosis/MultiSigWallet/blob/master/contracts/MultiSigWallet.sol\n     */\n\n    // call has been separated into its own function in order to take advantage\n    // of the Solidity's code generator to produce a loop that copies tx.data into memory.\n    function external_call(address destination, uint value, uint dataLength, bytes memory data) private returns (bool) {\n        bool result;\n        assembly {\n            let x := mload(0x40)   // \"Allocate\" memory for output (0x40 is where \"free memory\" pointer is stored by convention)\n            let d := add(data, 32) // First 32 bytes are the padded length of data, so exclude that\n            result := call(\n                sub(gas, 34710),   // 34710 is the value that solidity is currently emitting\n                                   // It includes callGas (700) + callVeryLow (3, to pay for SUB) + callValueTransferGas (9000) +\n                                   // callNewAccountGas (25000, in case the destination address does not exist and needs creating)\n                destination,\n                value,\n                d,\n                dataLength,        // Size of the input (in bytes) - this is what fixes the padding problem\n                x,\n                0                  // Output is ignored, therefore the output size is zero\n            )\n        }\n        return result;\n    }\n\n}\n\ncontract MasterContract {\n    function returnUserControlAddress(uint account_id) public view returns (address);\n    function returnIsValidSendingKey(address sending_key) public view returns (bool);\n    function returnStaticContractAddress() public view returns (address);\n    function recover(bytes32 hash, bytes memory sig) public pure returns (address);\n}\n",
  "sourcePath": "/Users/duncancockfoster/Desktop/Coding_projects/NiftyWallet/contracts/NiftyWallet.sol",
  "compiler": {
    "name": "solc",
    "version": "0.5.4+commit.9549d8ff.Emscripten.clang"
  },
  "schemaVersion": "3.0.6",
  "updatedAt": "2019-04-20T00:03:16.719Z",
  "devdoc": {
    "methods": {
      "callTx(bytes,address,uint256,bytes)": {
        "details": "function to call any on chain transactionverifies that the transaction data has been signed by the wallets controlling private keyand that the transaction has been sent from an approved sending wallet",
        "params": {
          "_signedData": "bytes - signature of txData + wallet address",
          "data": "bytes - transaction data",
          "destination": "address - destination for this transaction",
          "value": "uint - value of this transaction"
        }
      },
      "returnUserAccountAddress()": {
        "details": "returns signing private key that controls this wallet"
      }
    }
  },
  "userdoc": {
    "methods": {}
  }
}