{
  "contractName": "NiftyStaticCalls",
  "abi": [
    {
      "constant": true,
      "inputs": [],
      "name": "lastData",
      "outputs": [
        {
          "name": "",
          "type": "bytes"
        }
      ],
      "payable": false,
      "stateMutability": "view",
      "type": "function"
    },
    {
      "constant": true,
      "inputs": [],
      "name": "ERC1155_BATCH_RECEIVED_SIG",
      "outputs": [
        {
          "name": "",
          "type": "bytes4"
        }
      ],
      "payable": false,
      "stateMutability": "view",
      "type": "function"
    },
    {
      "constant": true,
      "inputs": [],
      "name": "lastValue",
      "outputs": [
        {
          "name": "",
          "type": "uint256"
        }
      ],
      "payable": false,
      "stateMutability": "view",
      "type": "function"
    },
    {
      "constant": true,
      "inputs": [],
      "name": "lastOperator",
      "outputs": [
        {
          "name": "",
          "type": "address"
        }
      ],
      "payable": false,
      "stateMutability": "view",
      "type": "function"
    },
    {
      "constant": true,
      "inputs": [],
      "name": "ERC1155_RECEIVED_SIG",
      "outputs": [
        {
          "name": "",
          "type": "bytes4"
        }
      ],
      "payable": false,
      "stateMutability": "view",
      "type": "function"
    },
    {
      "constant": true,
      "inputs": [],
      "name": "lastId",
      "outputs": [
        {
          "name": "",
          "type": "uint256"
        }
      ],
      "payable": false,
      "stateMutability": "view",
      "type": "function"
    },
    {
      "constant": true,
      "inputs": [],
      "name": "ERC1155_RECEIVED_INVALID",
      "outputs": [
        {
          "name": "",
          "type": "bytes4"
        }
      ],
      "payable": false,
      "stateMutability": "view",
      "type": "function"
    },
    {
      "constant": true,
      "inputs": [],
      "name": "retAdd",
      "outputs": [
        {
          "name": "",
          "type": "address"
        }
      ],
      "payable": false,
      "stateMutability": "view",
      "type": "function"
    },
    {
      "constant": true,
      "inputs": [
        {
          "name": "txData",
          "type": "bytes"
        },
        {
          "name": "des_add",
          "type": "address"
        },
        {
          "name": "value",
          "type": "uint256"
        }
      ],
      "name": "returnTxMessageToSign",
      "outputs": [
        {
          "name": "",
          "type": "bytes32"
        }
      ],
      "payable": false,
      "stateMutability": "view",
      "type": "function"
    },
    {
      "constant": true,
      "inputs": [
        {
          "name": "hash",
          "type": "bytes32"
        },
        {
          "name": "signature",
          "type": "bytes"
        }
      ],
      "name": "isValidSignature",
      "outputs": [
        {
          "name": "isValid",
          "type": "bool"
        }
      ],
      "payable": false,
      "stateMutability": "view",
      "type": "function"
    },
    {
      "constant": true,
      "inputs": [
        {
          "name": "_data",
          "type": "bytes"
        },
        {
          "name": "signature",
          "type": "bytes"
        }
      ],
      "name": "isValidSignature",
      "outputs": [
        {
          "name": "magicValue",
          "type": "bytes4"
        }
      ],
      "payable": false,
      "stateMutability": "view",
      "type": "function"
    },
    {
      "constant": false,
      "inputs": [
        {
          "name": "",
          "type": "address"
        },
        {
          "name": "",
          "type": "address"
        },
        {
          "name": "",
          "type": "uint256"
        },
        {
          "name": "",
          "type": "bytes"
        }
      ],
      "name": "onERC721Received",
      "outputs": [
        {
          "name": "",
          "type": "bytes4"
        }
      ],
      "payable": false,
      "stateMutability": "nonpayable",
      "type": "function"
    },
    {
      "constant": true,
      "inputs": [
        {
          "name": "_operator",
          "type": "address"
        },
        {
          "name": "_from",
          "type": "address"
        },
        {
          "name": "_id",
          "type": "uint256"
        },
        {
          "name": "_value",
          "type": "uint256"
        },
        {
          "name": "_data",
          "type": "bytes"
        }
      ],
      "name": "onERC1155Received",
      "outputs": [
        {
          "name": "",
          "type": "bytes4"
        }
      ],
      "payable": false,
      "stateMutability": "view",
      "type": "function"
    },
    {
      "constant": true,
      "inputs": [
        {
          "name": "_operator",
          "type": "address"
        },
        {
          "name": "_from",
          "type": "address"
        },
        {
          "name": "_ids",
          "type": "uint256[]"
        },
        {
          "name": "_values",
          "type": "uint256[]"
        },
        {
          "name": "_data",
          "type": "bytes"
        }
      ],
      "name": "onERC1155BatchReceived",
      "outputs": [
        {
          "name": "",
          "type": "bytes4"
        }
      ],
      "payable": false,
      "stateMutability": "view",
      "type": "function"
    }
  ],
  "bytecode": "0x60806040526320c13b0b7c0100000000000000000000000000000000000000000000000000000000026000806101000a81548163ffffffff02191690837c01000000000000000000000000000000000000000000000000000000009004021790555034801561006d57600080fd5b5061144d8061007d6000396000f3fe608060405234801561001057600080fd5b5060043610610106576000357c0100000000000000000000000000000000000000000000000000000000900480636eb3cd49116100a9578063bc197c8111610083578063bc197c8114610703578063c1292cc3146108b8578063e8c091f7146108d6578063f23a6e611461093257610106565b80636eb3cd4914610613578063acfc5eb11461065d578063aef63579146106a757610106565b806315a0d005116100e557806315a0d005146103415780631626ba7e1461043a57806320c13b0b146104d557806343183834146105f557610106565b80626e75ec1461010b5780630a14dcd61461018e578063150b7a02146101ea575b600080fd5b610113610a51565b6040518080602001828103825283818151815260200191508051906020019080838360005b83811015610153578082015181840152602081019050610138565b50505050905090810190601f1680156101805780820380516001836020036101000a031916815260200191505b509250505060405180910390f35b610196610aef565b60405180827bffffffffffffffffffffffffffffffffffffffffffffffffffffffff19167bffffffffffffffffffffffffffffffffffffffffffffffffffffffff1916815260200191505060405180910390f35b6102ed6004803603608081101561020057600080fd5b81019080803573ffffffffffffffffffffffffffffffffffffffff169060200190929190803573ffffffffffffffffffffffffffffffffffffffff169060200190929190803590602001909291908035906020019064010000000081111561026757600080fd5b82018360208201111561027957600080fd5b8035906020019184600183028401116401000000008311171561029b57600080fd5b91908080601f016020809104026020016040519081016040528093929190818152602001838380828437600081840152601f19601f820116905080830192505050505050509192919290505050610b16565b60405180827bffffffffffffffffffffffffffffffffffffffffffffffffffffffff19167bffffffffffffffffffffffffffffffffffffffffffffffffffffffff1916815260200191505060405180910390f35b6104246004803603606081101561035757600080fd5b810190808035906020019064010000000081111561037457600080fd5b82018360208201111561038657600080fd5b803590602001918460018302840111640100000000831117156103a857600080fd5b91908080601f016020809104026020016040519081016040528093929190818152602001838380828437600081840152601f19601f820116905080830192505050505050509192919290803573ffffffffffffffffffffffffffffffffffffffff16906020019092919080359060200190929190505050610b46565b6040518082815260200191505060405180910390f35b6104bb6004803603604081101561045057600080fd5b81019080803590602001909291908035906020019064010000000081111561047757600080fd5b82018360208201111561048957600080fd5b803590602001918460018302840111640100000000831117156104ab57600080fd5b9091929391929390505050610d1f565b604051808215151515815260200191505060405180910390f35b6105a1600480360360408110156104eb57600080fd5b810190808035906020019064010000000081111561050857600080fd5b82018360208201111561051a57600080fd5b8035906020019184600183028401116401000000008311171561053c57600080fd5b90919293919293908035906020019064010000000081111561055d57600080fd5b82018360208201111561056f57600080fd5b8035906020019184600183028401116401000000008311171561059157600080fd5b9091929391929390505050610f47565b60405180827bffffffffffffffffffffffffffffffffffffffffffffffffffffffff19167bffffffffffffffffffffffffffffffffffffffffffffffffffffffff1916815260200191505060405180910390f35b6105fd6111f3565b6040518082815260200191505060405180910390f35b61061b6111f9565b604051808273ffffffffffffffffffffffffffffffffffffffff1673ffffffffffffffffffffffffffffffffffffffff16815260200191505060405180910390f35b61066561121f565b604051808273ffffffffffffffffffffffffffffffffffffffff1673ffffffffffffffffffffffffffffffffffffffff16815260200191505060405180910390f35b6106af611227565b60405180827bffffffffffffffffffffffffffffffffffffffffffffffffffffffff19167bffffffffffffffffffffffffffffffffffffffffffffffffffffffff1916815260200191505060405180910390f35b610864600480360360a081101561071957600080fd5b81019080803573ffffffffffffffffffffffffffffffffffffffff169060200190929190803573ffffffffffffffffffffffffffffffffffffffff1690602001909291908035906020019064010000000081111561077657600080fd5b82018360208201111561078857600080fd5b803590602001918460208302840111640100000000831117156107aa57600080fd5b9091929391929390803590602001906401000000008111156107cb57600080fd5b8201836020820111156107dd57600080fd5b803590602001918460208302840111640100000000831117156107ff57600080fd5b90919293919293908035906020019064010000000081111561082057600080fd5b82018360208201111561083257600080fd5b8035906020019184600183028401116401000000008311171561085457600080fd5b909192939192939050505061124e565b60405180827bffffffffffffffffffffffffffffffffffffffffffffffffffffffff19167bffffffffffffffffffffffffffffffffffffffffffffffffffffffff1916815260200191505060405180910390f35b6108c0611282565b6040518082815260200191505060405180910390f35b6108de611288565b60405180827bffffffffffffffffffffffffffffffffffffffffffffffffffffffff19167bffffffffffffffffffffffffffffffffffffffffffffffffffffffff1916815260200191505060405180910390f35b6109fd600480360360a081101561094857600080fd5b81019080803573ffffffffffffffffffffffffffffffffffffffff169060200190929190803573ffffffffffffffffffffffffffffffffffffffff1690602001909291908035906020019092919080359060200190929190803590602001906401000000008111156109b957600080fd5b8201836020820111156109cb57600080fd5b803590602001918460018302840111640100000000831117156109ed57600080fd5b90919293919293905050506112af565b60405180827bffffffffffffffffffffffffffffffffffffffffffffffffffffffff19167bffffffffffffffffffffffffffffffffffffffffffffffffffffffff1916815260200191505060405180910390f35b60018054600181600116156101000203166002900480601f016020809104026020016040519081016040528092919081815260200182805460018160011615610100020316600290048015610ae75780601f10610abc57610100808354040283529160200191610ae7565b820191906000526020600020905b815481529060010190602001808311610aca57829003601f168201915b505050505081565b63bc197c817c01000000000000000000000000000000000000000000000000000000000281565b600063150b7a027c0100000000000000000000000000000000000000000000000000000000029050949350505050565b60008033905060008173ffffffffffffffffffffffffffffffffffffffff16636d9b501a6040518163ffffffff167c010000000000000000000000000000000000000000000000000000000002815260040160206040518083038186803b158015610bb057600080fd5b505afa158015610bc4573d6000803e3d6000fd5b505050506040513d6020811015610bda57600080fd5b81019080805190602001909291905050509050610bf56113c5565b60a0604051908101604052803373ffffffffffffffffffffffffffffffffffffffff1681526020018773ffffffffffffffffffffffffffffffffffffffff16815260200186815260200183815260200188815250905080600001518160800151604051602001808373ffffffffffffffffffffffffffffffffffffffff1673ffffffffffffffffffffffffffffffffffffffff16815260200180602001828103825283818151815260200191508051906020019080838360005b83811015610cca578082015181840152602081019050610caf565b50505050905090810190601f168015610cf75780820380516001836020036101000a031916815260200191505b5093505050506040516020818303038152906040528051906020012093505050509392505050565b6000604183839050141515610d9c576040517f08c379a00000000000000000000000000000000000000000000000000000000081526004018080602001828103825260128152602001807f4c454e4754485f36355f5245515549524544000000000000000000000000000081525060200191505060405180910390fd5b60603385604051602001808373ffffffffffffffffffffffffffffffffffffffff1673ffffffffffffffffffffffffffffffffffffffff166c010000000000000000000000000281526014018281526020019250505060405160208183030381529060405290506000818051906020012090506000610e5f8287878080601f016020809104026020016040519081016040528093929190818152602001838380828437600081840152601f19601f820116905080830192505050505050506112e1565b9050600033905060008173ffffffffffffffffffffffffffffffffffffffff1663615153346040518163ffffffff167c010000000000000000000000000000000000000000000000000000000002815260040160206040518083038186803b158015610eca57600080fd5b505afa158015610ede573d6000803e3d6000fd5b505050506040513d6020811015610ef457600080fd5b810190808051906020019092919050505090508273ffffffffffffffffffffffffffffffffffffffff168173ffffffffffffffffffffffffffffffffffffffff1614955085955050505050509392505050565b6000604183839050141515610fc4576040517f08c379a00000000000000000000000000000000000000000000000000000000081526004018080602001828103825260128152602001807f4c454e4754485f36355f5245515549524544000000000000000000000000000081525060200191505060405180910390fd5b600085856040518083838082843780830192505050925050506040518091039020905060603382604051602001808373ffffffffffffffffffffffffffffffffffffffff1673ffffffffffffffffffffffffffffffffffffffff166c0100000000000000000000000002815260140182815260200192505050604051602081830303815290604052905060008180519060200120905060006110aa8288888080601f016020809104026020016040519081016040528093929190818152602001838380828437600081840152601f19601f820116905080830192505050505050506112e1565b9050600033905060008173ffffffffffffffffffffffffffffffffffffffff1663615153346040518163ffffffff167c010000000000000000000000000000000000000000000000000000000002815260040160206040518083038186803b15801561111557600080fd5b505afa158015611129573d6000803e3d6000fd5b505050506040513d602081101561113f57600080fd5b810190808051906020019092919050505090508273ffffffffffffffffffffffffffffffffffffffff168173ffffffffffffffffffffffffffffffffffffffff1614156111be576000809054906101000a90047c01000000000000000000000000000000000000000000000000000000000296505050505050506111eb565b63deadbeef7c01000000000000000000000000000000000000000000000000000000000296505050505050505b949350505050565b60045481565b600260009054906101000a900473ffffffffffffffffffffffffffffffffffffffff1681565b600033905090565b63f23a6e617c01000000000000000000000000000000000000000000000000000000000281565b600063bc197c817c010000000000000000000000000000000000000000000000000000000002905098975050505050505050565b60035481565b63deadbeef7c01000000000000000000000000000000000000000000000000000000000281565b600063f23a6e617c01000000000000000000000000000000000000000000000000000000000290509695505050505050565b600080600080604185511415156112fe57600093505050506113bf565b6020850151925060408501519150606085015160001a9050601b8160ff16101561132957601b810190505b601b8160ff16141580156113415750601c8160ff1614155b1561135257600093505050506113bf565b60018682858560405160008152602001604052604051808581526020018460ff1660ff1681526020018381526020018281526020019450505050506020604051602081039080840390855afa1580156113af573d6000803e3d6000fd5b5050506020604051035193505050505b92915050565b60a060405190810160405280600073ffffffffffffffffffffffffffffffffffffffff168152602001600073ffffffffffffffffffffffffffffffffffffffff168152602001600081526020016000815260200160608152509056fea165627a7a723058202075cd0f8a86b5e953dce33f68fa234633570088cdb93c177e8c40a7ec62d43c0029",
  "source": "pragma solidity ^0.5.4;\n\ncontract NiftyStaticCalls {\n\n    function retAdd() external view returns(address) {\n        return(msg.sender);\n    }\n\n    struct mStruct {\n        address this_add;\n        address des_add;\n        uint value;\n        uint interalTxCount;\n        bytes txData;\n    }\n\n    function returnTxMessageToSign(bytes memory txData,\n                                address des_add,\n                                uint value) public view returns(bytes32) {\n        NiftyWalletContract NW_instance = NiftyWalletContract(msg.sender);\n        uint NiftyWalletTxCount = NW_instance.returnWalletTxCount();\n        mStruct memory message = mStruct(msg.sender, des_add, value, NiftyWalletTxCount, txData);\n        return keccak256(abi.encode(message.this_add, message.txData));\n    }\n\n       /**\n   * Recovery function for signature - taken from OpenZeppelin\n   * https://github.com/OpenZeppelin/openzeppelin-solidity/blob/9e1da49f235476290d5433dac6807500e18c7251/contracts/ECRecovery.sol\n   * @dev Recover signer address from a message by using their signature\n   * @param hash bytes32 message, the hash is the signed message. What is recovered is the signer address.\n   * @param sig bytes signature, the signature is generated using web3.eth.sign()\n   */\n  function recover(bytes32 hash, bytes memory sig) internal pure returns (address) {\n    bytes32 r;\n    bytes32 s;\n    uint8 v;\n\n    //Check the signature length\n    if (sig.length != 65) {\n      return (address(0));\n    }\n\n    // Divide the signature in r, s and v variables\n    // ecrecover takes the signature parameters, and the only way to get them\n    // currently is to use assembly.\n    // solium-disable-next-line security/no-inline-assembly\n    assembly {\n      r := mload(add(sig, 32))\n      s := mload(add(sig, 64))\n      v := byte(0, mload(add(sig, 96)))\n    }\n\n    // Version of signature should be 27 or 28, but 0 and 1 are also possible versions\n    if (v < 27) {\n      v += 27;\n    }\n\n    // If the version is correct return the signer address\n    if (v != 27 && v != 28) {\n      return (address(0));\n    } else {\n      return ecrecover(hash, v, r, s);\n    }\n  }\n\n\n        /** Functions to validate signatures so wallet can sign messages\n     * @dev Two functions - isValidSignature(bytes,bytes) and isValidSignature(bytes32,bytes)\n     * @dev isValidSignature(bytes,bytes) conforms to ERC1271 - https://github.com/ethereum/EIPs/blob/master/EIPS/eip-1271.md\n     * @dev This means it returns the magic value 0x20c13b0b\n     * @dev isValidSignature(bytes32,bytes) conforms to - https://github.com/0xProject/0x-monorepo/blob/development/contracts/exchange/contracts/examples/Wallet.sol#L45\n     */\n\n        /// @dev Validates a signature.\n    ///      The signer must match the owner of this wallet.\n    /// @param hash Message hash that is signed.\n    /// @param signature Proof of signing.\n    /// @return Validity of signature as bool\n    /// @dev To ensure a signature from one Nifty Wallet can't be used for another,\n    /// @dev Data signed is concantenated with the wallets address\n    function isValidSignature(\n        bytes32 hash,\n        bytes calldata signature\n    )\n        external\n        view\n        returns (bool isValid)\n    {\n        require(\n            signature.length == 65,\n            \"LENGTH_65_REQUIRED\"\n        );\n\n        bytes memory newData = abi.encodePacked(msg.sender, hash);\n        bytes32 newDataHash = keccak256(newData);\n\n        address recoveredAddress = recover(newDataHash, signature);\n        NiftyWalletContract NW_instance = NiftyWalletContract(msg.sender);\n        address WALLET_OWNER = NW_instance.returnUserAccountAddress();\n        isValid = WALLET_OWNER == recoveredAddress;\n        return isValid;\n    }\n\n    bytes4 internal MAGICVALUE = 0x20c13b0b;\n\n        /// @dev Validates a signature.\n    ///      The signer must match the owner of this wallet.\n    /// @param _data Data that is signed.\n    /// @param signature Proof of signing.\n    /// @return Validity of signature as bytes4\n    /// @dev To ensure a signature from one Nifty Wallet can't be used for another,\n    /// @dev Data signed is concantenated with the wallets address\n    function isValidSignature(\n        bytes calldata _data,\n        bytes calldata signature\n    )\n        external\n        view\n      returns (bytes4 magicValue)\n    {\n        require(\n            signature.length == 65,\n            \"LENGTH_65_REQUIRED\"\n        );\n\n        bytes32 dataHash = keccak256(_data);\n        bytes memory newData = abi.encodePacked(msg.sender, dataHash);\n        bytes32 newDataHash = keccak256(newData);\n\n        address recoveredAddress = recover(newDataHash, signature);\n        NiftyWalletContract NW_instance = NiftyWalletContract(msg.sender);\n        address WALLET_OWNER = NW_instance.returnUserAccountAddress();\n        if (WALLET_OWNER == recoveredAddress) {\n            return MAGICVALUE;\n        } else {\n            return (0xdeadbeef);\n        }\n    }\n\n    /**\n     * @dev Safe receiver functions\n    */\n\n    /** ERC721 receiver function\n     * From OpenZeppelin - https://github.com/OpenZeppelin/openzeppelin-solidity/blob/v1.12.0/contracts/token/ERC721/ERC721Receiver.sol\n     * Nifty Wallets will always receive an ERC721\n     */\n\n    bytes4 internal constant ERC721_RECEIVED = 0x150b7a02;\n\n    function onERC721Received(address, address, uint256, bytes memory) public returns (bytes4) {\n        return (ERC721_RECEIVED);\n    }\n\n    /** Safe ERC1155 receiver\n    * Nifty Wallets will always receive ERC1155s as well\n    * We like all tokens\n    * From Horizon Games - https://github.com/horizon-games/multi-token-standard\n    */\n    bytes4 constant public ERC1155_RECEIVED_SIG = 0xf23a6e61;\n      bytes4 constant public ERC1155_BATCH_RECEIVED_SIG = 0xbc197c81;\n      bytes4 constant public ERC1155_RECEIVED_INVALID = 0xdeadbeef;\n\n      bytes public lastData;\n      address public lastOperator;\n      uint256 public lastId;\n      uint256 public lastValue;\n\n      /**\n      * @notice Handle the receipt of a single ERC1155 token type.\n      * @dev An ERC1155-compliant smart contract MUST call this function on the token recipient contract, at the end of a `safeTransferFrom` after the balance has been updated.\n      * This function MAY throw to revert and reject the transfer.\n      * Return of other than the magic value MUST result in the transaction being reverted.\n      * Note: The contract address is always the message sender.\n      * @param _operator  The address which called the `safeTransferFrom` function\n      * @param _from      The address which previously owned the token\n      * @param _id        The id of the token being transferred\n      * @param _value     The amount of tokens being transferred\n      * @param _data      Additional data with no specified format\n      * @return           `bytes4(keccak256(\"onERC1155Received(address,address,uint256,uint256,bytes)\"))`\n      */\n      function onERC1155Received(address _operator, address _from, uint256 _id, uint256 _value, bytes calldata _data )\n        external view returns(bytes4)\n      {\n          return ERC1155_RECEIVED_SIG;\n      }\n\n      /**\n      * @notice Handle the receipt of multiple ERC1155 token types.\n      * @dev An ERC1155-compliant smart contract MUST call this function on the token recipient contract, at the end of a `safeBatchTransferFrom` after the balances have been updated.\n      * This function MAY throw to revert and reject the transfer.\n      * Return of other than the magic value WILL result in the transaction being reverted.\n      * Note: The contract address is always the message sender.\n      * @param _operator  The address which called the `safeBatchTransferFrom` function\n      * @param _from      The address which previously owned the token\n      * @param _ids       An array containing ids of each token being transferred\n      * @param _values    An array containing amounts of each token being transferred\n      * @param _data      Additional data with no specified format\n      * @return           `bytes4(keccak256(\"onERC1155BatchReceived(address,address,uint256[],uint256[],bytes)\"))`\n      */\n      function onERC1155BatchReceived(address _operator, address _from, uint256[] calldata _ids, uint256[] calldata _values, bytes calldata _data)\n        external view returns(bytes4)\n      {\n          return ERC1155_BATCH_RECEIVED_SIG;\n      }\n}\n\ncontract NiftyWalletContract {\n    function returnWalletTxCount() public view returns (uint);\n    function returnUserAccountAddress() public view returns (address);\n}\n",
  "sourcePath": "/Users/duncancockfoster/Desktop/Coding_projects/NiftyWallet/contracts/NiftyStaticCalls.sol",
  "compiler": {
    "name": "solc",
    "version": "0.5.4+commit.9549d8ff.Emscripten.clang"
  },
  "schemaVersion": "3.0.6",
  "updatedAt": "2019-04-20T00:03:16.704Z",
  "devdoc": {
    "methods": {
      "isValidSignature(bytes,bytes)": {
        "details": "Validates a signature.      The signer must match the owner of this wallet.To ensure a signature from one Nifty Wallet can't be used for another,Data signed is concantenated with the wallets address",
        "params": {
          "_data": "Data that is signed.",
          "signature": "Proof of signing."
        },
        "return": "Validity of signature as bytes4"
      },
      "isValidSignature(bytes32,bytes)": {
        "details": "Validates a signature.      The signer must match the owner of this wallet.To ensure a signature from one Nifty Wallet can't be used for another,Data signed is concantenated with the wallets address",
        "params": {
          "hash": "Message hash that is signed.",
          "signature": "Proof of signing."
        },
        "return": "Validity of signature as bool"
      },
      "onERC1155BatchReceived(address,address,uint256[],uint256[],bytes)": {
        "details": "An ERC1155-compliant smart contract MUST call this function on the token recipient contract, at the end of a `safeBatchTransferFrom` after the balances have been updated. This function MAY throw to revert and reject the transfer. Return of other than the magic value WILL result in the transaction being reverted. Note: The contract address is always the message sender.",
        "params": {
          "_data": "Additional data with no specified format",
          "_from": "The address which previously owned the token",
          "_ids": "An array containing ids of each token being transferred",
          "_operator": "The address which called the `safeBatchTransferFrom` function",
          "_values": "An array containing amounts of each token being transferred"
        },
        "return": "`bytes4(keccak256(\"onERC1155BatchReceived(address,address,uint256[],uint256[],bytes)\"))`"
      },
      "onERC1155Received(address,address,uint256,uint256,bytes)": {
        "details": "An ERC1155-compliant smart contract MUST call this function on the token recipient contract, at the end of a `safeTransferFrom` after the balance has been updated. This function MAY throw to revert and reject the transfer. Return of other than the magic value MUST result in the transaction being reverted. Note: The contract address is always the message sender.",
        "params": {
          "_data": "Additional data with no specified format",
          "_from": "The address which previously owned the token",
          "_id": "The id of the token being transferred",
          "_operator": "The address which called the `safeTransferFrom` function",
          "_value": "The amount of tokens being transferred"
        },
        "return": "`bytes4(keccak256(\"onERC1155Received(address,address,uint256,uint256,bytes)\"))`"
      }
    }
  },
  "userdoc": {
    "methods": {
      "onERC1155BatchReceived(address,address,uint256[],uint256[],bytes)": {
        "notice": "Handle the receipt of multiple ERC1155 token types."
      },
      "onERC1155Received(address,address,uint256,uint256,bytes)": {
        "notice": "Handle the receipt of a single ERC1155 token type."
      }
    }
  }
}