{
  "contractName": "NiftyWallet",
  "abi": [
    {
      "constant": true,
      "inputs": [],
      "name": "lastData",
      "outputs": [
        {
          "name": "",
          "type": "bytes"
        }
      ],
      "payable": false,
      "stateMutability": "view",
      "type": "function"
    },
    {
      "constant": true,
      "inputs": [],
      "name": "ERC1155_BATCH_RECEIVED_SIG",
      "outputs": [
        {
          "name": "",
          "type": "bytes4"
        }
      ],
      "payable": false,
      "stateMutability": "view",
      "type": "function"
    },
    {
      "constant": true,
      "inputs": [],
      "name": "shouldReject",
      "outputs": [
        {
          "name": "",
          "type": "bool"
        }
      ],
      "payable": false,
      "stateMutability": "view",
      "type": "function"
    },
    {
      "constant": true,
      "inputs": [],
      "name": "lastValue",
      "outputs": [
        {
          "name": "",
          "type": "uint256"
        }
      ],
      "payable": false,
      "stateMutability": "view",
      "type": "function"
    },
    {
      "constant": true,
      "inputs": [],
      "name": "lastOperator",
      "outputs": [
        {
          "name": "",
          "type": "address"
        }
      ],
      "payable": false,
      "stateMutability": "view",
      "type": "function"
    },
    {
      "constant": true,
      "inputs": [],
      "name": "ERC1155_RECEIVED_SIG",
      "outputs": [
        {
          "name": "",
          "type": "bytes4"
        }
      ],
      "payable": false,
      "stateMutability": "view",
      "type": "function"
    },
    {
      "constant": true,
      "inputs": [],
      "name": "lastId",
      "outputs": [
        {
          "name": "",
          "type": "uint256"
        }
      ],
      "payable": false,
      "stateMutability": "view",
      "type": "function"
    },
    {
      "constant": true,
      "inputs": [],
      "name": "ERC1155_RECEIVED_INVALID",
      "outputs": [
        {
          "name": "",
          "type": "bytes4"
        }
      ],
      "payable": false,
      "stateMutability": "view",
      "type": "function"
    },
    {
      "payable": true,
      "stateMutability": "payable",
      "type": "fallback"
    },
    {
      "anonymous": false,
      "inputs": [],
      "name": "Execution",
      "type": "event"
    },
    {
      "anonymous": false,
      "inputs": [],
      "name": "ExecutionFailure",
      "type": "event"
    },
    {
      "anonymous": false,
      "inputs": [
        {
          "indexed": true,
          "name": "sender",
          "type": "address"
        },
        {
          "indexed": false,
          "name": "value",
          "type": "uint256"
        }
      ],
      "name": "Deposit",
      "type": "event"
    },
    {
      "anonymous": false,
      "inputs": [
        {
          "indexed": false,
          "name": "walletAddress",
          "type": "address"
        }
      ],
      "name": "WalletEjection",
      "type": "event"
    },
    {
      "constant": false,
      "inputs": [],
      "name": "returnUserAccountAddress",
      "outputs": [
        {
          "name": "",
          "type": "address"
        }
      ],
      "payable": false,
      "stateMutability": "nonpayable",
      "type": "function"
    },
    {
      "constant": false,
      "inputs": [],
      "name": "returnControlAccountAddress",
      "outputs": [
        {
          "name": "",
          "type": "address"
        }
      ],
      "payable": false,
      "stateMutability": "nonpayable",
      "type": "function"
    },
    {
      "constant": false,
      "inputs": [
        {
          "name": "_signedData",
          "type": "bytes"
        },
        {
          "name": "destination",
          "type": "address"
        },
        {
          "name": "value",
          "type": "uint256"
        },
        {
          "name": "data",
          "type": "bytes"
        }
      ],
      "name": "callTx",
      "outputs": [
        {
          "name": "",
          "type": "bool"
        }
      ],
      "payable": false,
      "stateMutability": "nonpayable",
      "type": "function"
    },
    {
      "constant": false,
      "inputs": [
        {
          "name": "",
          "type": "address"
        },
        {
          "name": "",
          "type": "address"
        },
        {
          "name": "",
          "type": "uint256"
        },
        {
          "name": "",
          "type": "bytes"
        }
      ],
      "name": "onERC721Received",
      "outputs": [
        {
          "name": "",
          "type": "bytes4"
        }
      ],
      "payable": false,
      "stateMutability": "nonpayable",
      "type": "function"
    },
    {
      "constant": false,
      "inputs": [
        {
          "name": "_value",
          "type": "bool"
        }
      ],
      "name": "setShouldReject",
      "outputs": [],
      "payable": false,
      "stateMutability": "nonpayable",
      "type": "function"
    },
    {
      "constant": true,
      "inputs": [
        {
          "name": "_operator",
          "type": "address"
        },
        {
          "name": "_from",
          "type": "address"
        },
        {
          "name": "_id",
          "type": "uint256"
        },
        {
          "name": "_value",
          "type": "uint256"
        },
        {
          "name": "_data",
          "type": "bytes"
        }
      ],
      "name": "onERC1155Received",
      "outputs": [
        {
          "name": "",
          "type": "bytes4"
        }
      ],
      "payable": false,
      "stateMutability": "view",
      "type": "function"
    },
    {
      "constant": true,
      "inputs": [
        {
          "name": "_operator",
          "type": "address"
        },
        {
          "name": "_from",
          "type": "address"
        },
        {
          "name": "_ids",
          "type": "uint256[]"
        },
        {
          "name": "_values",
          "type": "uint256[]"
        },
        {
          "name": "_data",
          "type": "bytes"
        }
      ],
      "name": "onERC1155BatchReceived",
      "outputs": [
        {
          "name": "",
          "type": "bytes4"
        }
      ],
      "payable": false,
      "stateMutability": "view",
      "type": "function"
    }
  ],
  "bytecode": "0x608060405273b8e2b13211af02116187f98f4662ca9ab23136ab6000806101000a81548173ffffffffffffffffffffffffffffffffffffffff021916908373ffffffffffffffffffffffffffffffffffffffff160217905550600060015534801561006957600080fd5b50611270806100796000396000f3fe608060405260043610610104576000357c0100000000000000000000000000000000000000000000000000000000900480636de725a3116100a7578063bc197c8111610076578063bc197c8114610761578063c1292cc314610923578063e8c091f71461094e578063f23a6e61146109b757610104565b80636de725a3146104c35780636eb3cd4914610664578063a175b638146106bb578063aef63579146106f857610104565b80631dbb9381116100e35780631dbb9381146103bb57806343183834146103ea57806357cf550b14610415578063615153341461046c57610104565b80626e75ec1461015e5780630a14dcd6146101ee578063150b7a0214610257575b600034111561015c573373ffffffffffffffffffffffffffffffffffffffff167fe1fffcc4923d04b559f4d29a8bfc6cda04eb5b0d3c460751c2402c5c5cc9109c346040518082815260200191505060405180910390a25b005b34801561016a57600080fd5b50610173610ae3565b6040518080602001828103825283818151815260200191508051906020019080838360005b838110156101b3578082015181840152602081019050610198565b50505050905090810190601f1680156101e05780820380516001836020036101000a031916815260200191505b509250505060405180910390f35b3480156101fa57600080fd5b50610203610b81565b60405180827bffffffffffffffffffffffffffffffffffffffffffffffffffffffff19167bffffffffffffffffffffffffffffffffffffffffffffffffffffffff1916815260200191505060405180910390f35b34801561026357600080fd5b506103676004803603608081101561027a57600080fd5b81019080803573ffffffffffffffffffffffffffffffffffffffff169060200190929190803573ffffffffffffffffffffffffffffffffffffffff16906020019092919080359060200190929190803590602001906401000000008111156102e157600080fd5b8201836020820111156102f357600080fd5b8035906020019184600183028401116401000000008311171561031557600080fd5b91908080601f016020809104026020016040519081016040528093929190818152602001838380828437600081840152601f19601f820116905080830192505050505050509192919290505050610ba8565b60405180827bffffffffffffffffffffffffffffffffffffffffffffffffffffffff19167bffffffffffffffffffffffffffffffffffffffffffffffffffffffff1916815260200191505060405180910390f35b3480156103c757600080fd5b506103d0610bd8565b604051808215151515815260200191505060405180910390f35b3480156103f657600080fd5b506103ff610beb565b6040518082815260200191505060405180910390f35b34801561042157600080fd5b5061042a610bf1565b604051808273ffffffffffffffffffffffffffffffffffffffff1673ffffffffffffffffffffffffffffffffffffffff16815260200191505060405180910390f35b34801561047857600080fd5b50610481610cbd565b604051808273ffffffffffffffffffffffffffffffffffffffff1673ffffffffffffffffffffffffffffffffffffffff16815260200191505060405180910390f35b3480156104cf57600080fd5b5061064a600480360360808110156104e657600080fd5b810190808035906020019064010000000081111561050357600080fd5b82018360208201111561051557600080fd5b8035906020019184600183028401116401000000008311171561053757600080fd5b91908080601f016020809104026020016040519081016040528093929190818152602001838380828437600081840152601f19601f820116905080830192505050505050509192919290803573ffffffffffffffffffffffffffffffffffffffff16906020019092919080359060200190929190803590602001906401000000008111156105c457600080fd5b8201836020820111156105d657600080fd5b803590602001918460018302840111640100000000831117156105f857600080fd5b91908080601f016020809104026020016040519081016040528093929190818152602001838380828437600081840152601f19601f820116905080830192505050505050509192919290505050610d96565b604051808215151515815260200191505060405180910390f35b34801561067057600080fd5b50610679610e7e565b604051808273ffffffffffffffffffffffffffffffffffffffff1673ffffffffffffffffffffffffffffffffffffffff16815260200191505060405180910390f35b3480156106c757600080fd5b506106f6600480360360208110156106de57600080fd5b81019080803515159060200190929190505050610ea4565b005b34801561070457600080fd5b5061070d610ec1565b60405180827bffffffffffffffffffffffffffffffffffffffffffffffffffffffff19167bffffffffffffffffffffffffffffffffffffffffffffffffffffffff1916815260200191505060405180910390f35b34801561076d57600080fd5b506108cf600480360360a081101561078457600080fd5b81019080803573ffffffffffffffffffffffffffffffffffffffff169060200190929190803573ffffffffffffffffffffffffffffffffffffffff169060200190929190803590602001906401000000008111156107e157600080fd5b8201836020820111156107f357600080fd5b8035906020019184602083028401116401000000008311171561081557600080fd5b90919293919293908035906020019064010000000081111561083657600080fd5b82018360208201111561084857600080fd5b8035906020019184602083028401116401000000008311171561086a57600080fd5b90919293919293908035906020019064010000000081111561088b57600080fd5b82018360208201111561089d57600080fd5b803590602001918460018302840111640100000000831117156108bf57600080fd5b9091929391929390505050610ee8565b60405180827bffffffffffffffffffffffffffffffffffffffffffffffffffffffff19167bffffffffffffffffffffffffffffffffffffffffffffffffffffffff1916815260200191505060405180910390f35b34801561092f57600080fd5b50610938610f64565b6040518082815260200191505060405180910390f35b34801561095a57600080fd5b50610963610f6a565b60405180827bffffffffffffffffffffffffffffffffffffffffffffffffffffffff19167bffffffffffffffffffffffffffffffffffffffffffffffffffffffff1916815260200191505060405180910390f35b3480156109c357600080fd5b50610a8f600480360360a08110156109da57600080fd5b81019080803573ffffffffffffffffffffffffffffffffffffffff169060200190929190803573ffffffffffffffffffffffffffffffffffffffff169060200190929190803590602001909291908035906020019092919080359060200190640100000000811115610a4b57600080fd5b820183602082011115610a5d57600080fd5b80359060200191846001830284011164010000000083111715610a7f57600080fd5b9091929391929390505050610f91565b60405180827bffffffffffffffffffffffffffffffffffffffffffffffffffffffff19167bffffffffffffffffffffffffffffffffffffffffffffffffffffffff1916815260200191505060405180910390f35b60038054600181600116156101000203166002900480601f016020809104026020016040519081016040528092919081815260200182805460018160011615610100020316600290048015610b795780601f10610b4e57610100808354040283529160200191610b79565b820191906000526020600020905b815481529060010190602001808311610b5c57829003601f168201915b505050505081565b63bc197c817c01000000000000000000000000000000000000000000000000000000000281565b600063150b7a027c0100000000000000000000000000000000000000000000000000000000029050949350505050565b600260009054906101000a900460ff1681565b60065481565b6000806000809054906101000a900473ffffffffffffffffffffffffffffffffffffffff1690508073ffffffffffffffffffffffffffffffffffffffff166383d18bcf6040518163ffffffff167c0100000000000000000000000000000000000000000000000000000000028152600401602060405180830381600087803b158015610c7c57600080fd5b505af1158015610c90573d6000803e3d6000fd5b505050506040513d6020811015610ca657600080fd5b810190808051906020019092919050505091505090565b6000806000809054906101000a900473ffffffffffffffffffffffffffffffffffffffff1690508073ffffffffffffffffffffffffffffffffffffffff1663ec9614a16001546040518263ffffffff167c010000000000000000000000000000000000000000000000000000000002815260040180828152602001915050602060405180830381600087803b158015610d5557600080fd5b505af1158015610d69573d6000803e3d6000fd5b505050506040513d6020811015610d7f57600080fd5b810190808051906020019092919050505091505090565b600080610da1610cbd565b90506000610dae8461100b565b90506000610dbc8289611109565b90508273ffffffffffffffffffffffffffffffffffffffff168173ffffffffffffffffffffffffffffffffffffffff161415610e6e57610dff87878751886111ed565b15610e35577f0491a4785da89967a88ec0239585a420085524eae3e40dc52dd57aa303984e7f60405160405180910390a1610e62565b7fc24d93608a03d263ff191d7677141f5e94c496e593108f3aae0cb5b70494c4d360405160405180910390a15b60019350505050610e76565b600093505050505b949350505050565b600460009054906101000a900473ffffffffffffffffffffffffffffffffffffffff1681565b80600260006101000a81548160ff02191690831515021790555050565b63f23a6e617c01000000000000000000000000000000000000000000000000000000000281565b600060011515600260009054906101000a900460ff1615151415610f315763deadbeef7c0100000000000000000000000000000000000000000000000000000000029050610f58565b63bc197c817c01000000000000000000000000000000000000000000000000000000000290505b98975050505050505050565b60055481565b63deadbeef7c01000000000000000000000000000000000000000000000000000000000281565b600060011515600260009054906101000a900460ff1615151415610fda5763deadbeef7c0100000000000000000000000000000000000000000000000000000000029050611001565b63f23a6e617c01000000000000000000000000000000000000000000000000000000000290505b9695505050505050565b6000611015611214565b60408051908101604052803073ffffffffffffffffffffffffffffffffffffffff16815260200184815250905080600001518160200151604051602001808373ffffffffffffffffffffffffffffffffffffffff1673ffffffffffffffffffffffffffffffffffffffff166c0100000000000000000000000002815260140182805190602001908083835b6020831015156110c557805182526020820191506020810190506020830392506110a0565b6001836020036101000a0380198251168184511680821785525050505050509050019250505060405160208183030381529060405280519060200120915050919050565b6000806000806041855114151561112657600093505050506111e7565b6020850151925060408501519150606085015160001a9050601b8160ff16101561115157601b810190505b601b8160ff16141580156111695750601c8160ff1614155b1561117a57600093505050506111e7565b60018682858560405160008152602001604052604051808581526020018460ff1660ff1681526020018381526020018281526020019450505050506020604051602081039080840390855afa1580156111d7573d6000803e3d6000fd5b5050506020604051035193505050505b92915050565b6000806040516020840160008287838a8c6187965a03f19250505080915050949350505050565b6040805190810160405280600073ffffffffffffffffffffffffffffffffffffffff16815260200160608152509056fea165627a7a723058205037504f5f4c50113232b94c7300798ebded37b601c384793ca2eef165b9eafd0029",
  "source": "pragma solidity ^0.5.4;\n\ncontract NiftyWallet {\n\n    //constants\n    //include master contract address, account ID, number of transactions\n\n     address masterContractAdd = 0xb8e2b13211aF02116187F98F4662cA9Ab23136aB;\n\n     uint userAccountID = 0;\n\n    /*\n    / Events\n    */\n\n    event Execution();\n    event ExecutionFailure();\n    event Deposit(address indexed sender, uint value);\n    event WalletEjection(address walletAddress);\n\n    //constant - tx number\n    //every time an old tx number is called, it is incremented\n    //to stop replay attacks\n\n\n    //wallet controlling address and control cold address\n\n    function returnUserAccountAddress() public returns(address) {\n        MasterContract m_c_instance = MasterContract(masterContractAdd);\n        return (m_c_instance.returnUserControlAddress(userAccountID));\n    }\n\n    function returnControlAccountAddress() public returns(address) {\n        MasterContract m_c_instance = MasterContract(masterContractAdd);\n        return (m_c_instance.returnColdControlAddress());\n    }\n\n    //only control wallet modifier\n      modifier onlyControl() {\n          //if the wallet ejected the control_cold will be the 0 address\n          //so this modifier condition will never be met\n        address control_cold = returnControlAccountAddress();\n        require(msg.sender == control_cold);\n        _;\n      }\n\n      struct mStruct {\n        address this_add;\n        bytes txData;\n    }\n\n      function returnTxMessageToSign(bytes memory txData) private view returns(bytes32) {\n        mStruct memory message = mStruct(address(this), txData);\n        return keccak256(abi.encodePacked(message.this_add, message.txData));\n    }\n\n\n   /**\n   * @dev Recover signer address from a message by using their signature\n   * @param hash bytes32 message, the hash is the signed message. What is recovered is the signer address.\n   * @param sig bytes signature, the signature is generated using web3.eth.sign()\n   */\n  function recover(bytes32 hash, bytes memory sig) internal pure returns (address) {\n    bytes32 r;\n    bytes32 s;\n    uint8 v;\n\n    //Check the signature length\n    if (sig.length != 65) {\n      return (address(0));\n    }\n\n    // Divide the signature in r, s and v variables\n    // ecrecover takes the signature parameters, and the only way to get them\n    // currently is to use assembly.\n    // solium-disable-next-line security/no-inline-assembly\n    assembly {\n      r := mload(add(sig, 32))\n      s := mload(add(sig, 64))\n      v := byte(0, mload(add(sig, 96)))\n    }\n\n    // Version of signature should be 27 or 28, but 0 and 1 are also possible versions\n    if (v < 27) {\n      v += 27;\n    }\n\n    // If the version is correct return the signer address\n    if (v != 27 && v != 28) {\n      return (address(0));\n    } else {\n      return ecrecover(hash, v, r, s);\n    }\n  }\n\n    /**\n     * Functions that get message to sign to authenticate\n     */\n\n    //payable function so contract can receive eth\n    //hopefully never used\n    //but we'll see\n\n    function()\n        payable\n        external\n    {\n        if (msg.value > 0)\n            emit Deposit(msg.sender, msg.value);\n    }\n\n    function callTx(bytes memory _signedData,\n                     address destination,\n                     uint value,\n                     bytes memory data)\n    public returns (bool) {\n        address userSigningAddress = returnUserAccountAddress();\n        bytes32 dataHash = returnTxMessageToSign(data);\n        address recoveredAddress = recover(dataHash, _signedData);\n        if (recoveredAddress==userSigningAddress) {\n            if (external_call(destination, value, data.length, data)) {\n                emit Execution();\n            } else {\n                emit ExecutionFailure();\n            }\n            return(true);\n        } else {\n            return(false);\n        }\n    }\n\n    // call has been separated into its own function in order to take advantage\n    // of the Solidity's code generator to produce a loop that copies tx.data into memory.\n    function external_call(address destination, uint value, uint dataLength, bytes memory data) private returns (bool) {\n        bool result;\n        assembly {\n            let x := mload(0x40)   // \"Allocate\" memory for output (0x40 is where \"free memory\" pointer is stored by convention)\n            let d := add(data, 32) // First 32 bytes are the padded length of data, so exclude that\n            result := call(\n                sub(gas, 34710),   // 34710 is the value that solidity is currently emitting\n                                   // It includes callGas (700) + callVeryLow (3, to pay for SUB) + callValueTransferGas (9000) +\n                                   // callNewAccountGas (25000, in case the destination address does not exist and needs creating)\n                destination,\n                value,\n                d,\n                dataLength,        // Size of the input (in bytes) - this is what fixes the padding problem\n                x,\n                0                  // Output is ignored, therefore the output size is zero\n            )\n        }\n        return result;\n    }\n\n    //ejection function\n\n    /**\n     * receiver functions, starting with ERC721\n     * basically all copied and pasted\n    * Safe ERC721 receiver\n    */\n    function onERC721Received(address, address, uint256, bytes memory) public returns (bytes4) {\n        return this.onERC721Received.selector;\n    }\n\n    /** Safe ERC1155 receiver\n    *\n    */\n    bytes4 constant public ERC1155_RECEIVED_SIG = 0xf23a6e61;\n      bytes4 constant public ERC1155_BATCH_RECEIVED_SIG = 0xbc197c81;\n      bytes4 constant public ERC1155_RECEIVED_INVALID = 0xdeadbeef;\n\n      // Keep values from last received contract.\n      bool public shouldReject;\n\n      bytes public lastData;\n      address public lastOperator;\n      uint256 public lastId;\n      uint256 public lastValue;\n\n      function setShouldReject(bool _value) public {\n        shouldReject = _value;\n      }\n\n      /**\n      * @notice Handle the receipt of a single ERC1155 token type.\n      * @dev An ERC1155-compliant smart contract MUST call this function on the token recipient contract, at the end of a `safeTransferFrom` after the balance has been updated.\n      * This function MAY throw to revert and reject the transfer.\n      * Return of other than the magic value MUST result in the transaction being reverted.\n      * Note: The contract address is always the message sender.\n      * @param _operator  The address which called the `safeTransferFrom` function\n      * @param _from      The address which previously owned the token\n      * @param _id        The id of the token being transferred\n      * @param _value     The amount of tokens being transferred\n      * @param _data      Additional data with no specified format\n      * @return           `bytes4(keccak256(\"onERC1155Received(address,address,uint256,uint256,bytes)\"))`\n      */\n      function onERC1155Received(address _operator, address _from, uint256 _id, uint256 _value, bytes calldata _data )\n        external view returns(bytes4)\n      {\n        if (shouldReject == true) {\n          return ERC1155_RECEIVED_INVALID; // Some random value\n        } else {\n          return ERC1155_RECEIVED_SIG;\n        }\n      }\n\n      /**\n      * @notice Handle the receipt of multiple ERC1155 token types.\n      * @dev An ERC1155-compliant smart contract MUST call this function on the token recipient contract, at the end of a `safeBatchTransferFrom` after the balances have been updated.\n      * This function MAY throw to revert and reject the transfer.\n      * Return of other than the magic value WILL result in the transaction being reverted.\n      * Note: The contract address is always the message sender.\n      * @param _operator  The address which called the `safeBatchTransferFrom` function\n      * @param _from      The address which previously owned the token\n      * @param _ids       An array containing ids of each token being transferred\n      * @param _values    An array containing amounts of each token being transferred\n      * @param _data      Additional data with no specified format\n      * @return           `bytes4(keccak256(\"onERC1155BatchReceived(address,address,uint256[],uint256[],bytes)\"))`\n      */\n      function onERC1155BatchReceived(address _operator, address _from, uint256[] calldata _ids, uint256[] calldata _values, bytes calldata _data)\n        external view returns(bytes4)\n      {\n        if (shouldReject == true) {\n          return ERC1155_RECEIVED_INVALID; // Some random value\n        } else {\n          return ERC1155_BATCH_RECEIVED_SIG;\n        }\n      }\n\n}\n\ncontract MasterContract {\n    function returnColdControlAddress() public returns (address);\n    function returnUserControlAddress(uint account_id) public returns (address);\n}\n",
  "sourcePath": "/Users/duncancockfoster/Desktop/Coding_projects/NiftyWallet/contracts/NiftyWallet.sol",
  "compiler": {
    "name": "solc",
    "version": "0.5.4+commit.9549d8ff.Emscripten.clang"
  },
  "schemaVersion": "3.0.6",
  "updatedAt": "2019-04-07T23:12:59.894Z",
  "devdoc": {
    "methods": {
      "onERC1155BatchReceived(address,address,uint256[],uint256[],bytes)": {
        "details": "An ERC1155-compliant smart contract MUST call this function on the token recipient contract, at the end of a `safeBatchTransferFrom` after the balances have been updated. This function MAY throw to revert and reject the transfer. Return of other than the magic value WILL result in the transaction being reverted. Note: The contract address is always the message sender.",
        "params": {
          "_data": "Additional data with no specified format",
          "_from": "The address which previously owned the token",
          "_ids": "An array containing ids of each token being transferred",
          "_operator": "The address which called the `safeBatchTransferFrom` function",
          "_values": "An array containing amounts of each token being transferred"
        },
        "return": "`bytes4(keccak256(\"onERC1155BatchReceived(address,address,uint256[],uint256[],bytes)\"))`"
      },
      "onERC1155Received(address,address,uint256,uint256,bytes)": {
        "details": "An ERC1155-compliant smart contract MUST call this function on the token recipient contract, at the end of a `safeTransferFrom` after the balance has been updated. This function MAY throw to revert and reject the transfer. Return of other than the magic value MUST result in the transaction being reverted. Note: The contract address is always the message sender.",
        "params": {
          "_data": "Additional data with no specified format",
          "_from": "The address which previously owned the token",
          "_id": "The id of the token being transferred",
          "_operator": "The address which called the `safeTransferFrom` function",
          "_value": "The amount of tokens being transferred"
        },
        "return": "`bytes4(keccak256(\"onERC1155Received(address,address,uint256,uint256,bytes)\"))`"
      }
    }
  },
  "userdoc": {
    "methods": {
      "onERC1155BatchReceived(address,address,uint256[],uint256[],bytes)": {
        "notice": "Handle the receipt of multiple ERC1155 token types."
      },
      "onERC1155Received(address,address,uint256,uint256,bytes)": {
        "notice": "Handle the receipt of a single ERC1155 token type."
      },
      "onERC721Received(address,address,uint256,bytes)": {
        "notice": "receiver functions, starting with ERC721 basically all copied and pasted Safe ERC721 receiver"
      }
    }
  }
}