{
  "contractName": "TestContractCalls",
  "abi": [
    {
      "constant": true,
      "inputs": [
        {
          "name": "add1",
          "type": "address"
        },
        {
          "name": "add2",
          "type": "address"
        },
        {
          "name": "id",
          "type": "uint256"
        },
        {
          "name": "dat",
          "type": "bytes"
        }
      ],
      "name": "onERC721Received",
      "outputs": [
        {
          "name": "",
          "type": "bytes4"
        }
      ],
      "payable": false,
      "stateMutability": "view",
      "type": "function"
    },
    {
      "constant": true,
      "inputs": [],
      "name": "add",
      "outputs": [
        {
          "name": "",
          "type": "address"
        }
      ],
      "payable": false,
      "stateMutability": "view",
      "type": "function"
    },
    {
      "constant": true,
      "inputs": [
        {
          "name": "hash",
          "type": "bytes32"
        },
        {
          "name": "signature",
          "type": "bytes"
        }
      ],
      "name": "isValidSignature",
      "outputs": [
        {
          "name": "",
          "type": "bool"
        }
      ],
      "payable": false,
      "stateMutability": "view",
      "type": "function"
    },
    {
      "constant": true,
      "inputs": [
        {
          "name": "hash",
          "type": "bytes"
        },
        {
          "name": "signature",
          "type": "bytes"
        }
      ],
      "name": "isValidSignature",
      "outputs": [
        {
          "name": "",
          "type": "bytes4"
        }
      ],
      "payable": false,
      "stateMutability": "view",
      "type": "function"
    }
  ],
  "bytecode": "0x60806040527372947f7e561e66e902d9210d6f7261dd06a2ec966000806101000a81548173ffffffffffffffffffffffffffffffffffffffff021916908373ffffffffffffffffffffffffffffffffffffffff16021790555034801561006457600080fd5b506108b6806100746000396000f3fe608060405234801561001057600080fd5b5060043610610069576000357c010000000000000000000000000000000000000000000000000000000090048063150b7a021461006e5780631626ba7e146101c557806320c13b0b146102605780634f2be91f14610380575b600080fd5b6101716004803603608081101561008457600080fd5b81019080803573ffffffffffffffffffffffffffffffffffffffff169060200190929190803573ffffffffffffffffffffffffffffffffffffffff16906020019092919080359060200190929190803590602001906401000000008111156100eb57600080fd5b8201836020820111156100fd57600080fd5b8035906020019184600183028401116401000000008311171561011f57600080fd5b91908080601f016020809104026020016040519081016040528093929190818152602001838380828437600081840152601f19601f8201169050808301925050505050505091929192905050506103ca565b60405180827bffffffffffffffffffffffffffffffffffffffffffffffffffffffff19167bffffffffffffffffffffffffffffffffffffffffffffffffffffffff1916815260200191505060405180910390f35b610246600480360360408110156101db57600080fd5b81019080803590602001909291908035906020019064010000000081111561020257600080fd5b82018360208201111561021457600080fd5b8035906020019184600183028401116401000000008311171561023657600080fd5b9091929391929390505050610579565b604051808215151515815260200191505060405180910390f35b61032c6004803603604081101561027657600080fd5b810190808035906020019064010000000081111561029357600080fd5b8201836020820111156102a557600080fd5b803590602001918460018302840111640100000000831117156102c757600080fd5b9091929391929390803590602001906401000000008111156102e857600080fd5b8201836020820111156102fa57600080fd5b8035906020019184600183028401116401000000008311171561031c57600080fd5b9091929391929390505050610686565b60405180827bffffffffffffffffffffffffffffffffffffffffffffffffffffffff19167bffffffffffffffffffffffffffffffffffffffffffffffffffffffff1916815260200191505060405180910390f35b6103886107c0565b604051808273ffffffffffffffffffffffffffffffffffffffff1673ffffffffffffffffffffffffffffffffffffffff16815260200191505060405180910390f35b6000806000809054906101000a900473ffffffffffffffffffffffffffffffffffffffff1690508073ffffffffffffffffffffffffffffffffffffffff1663150b7a02878787876040518563ffffffff167c0100000000000000000000000000000000000000000000000000000000028152600401808573ffffffffffffffffffffffffffffffffffffffff1673ffffffffffffffffffffffffffffffffffffffff1681526020018473ffffffffffffffffffffffffffffffffffffffff1673ffffffffffffffffffffffffffffffffffffffff16815260200183815260200180602001828103825283818151815260200191508051906020019080838360005b838110156104e65780820151818401526020810190506104cb565b50505050905090810190601f1680156105135780820380516001836020036101000a031916815260200191505b509550505050505060206040518083038186803b15801561053357600080fd5b505afa158015610547573d6000803e3d6000fd5b505050506040513d602081101561055d57600080fd5b8101908080519060200190929190505050915050949350505050565b6000806000809054906101000a900473ffffffffffffffffffffffffffffffffffffffff1690508073ffffffffffffffffffffffffffffffffffffffff16631626ba7e8686866040518463ffffffff167c010000000000000000000000000000000000000000000000000000000002815260040180848152602001806020018281038252848482818152602001925080828437600081840152601f19601f82011690508083019250505094505050505060206040518083038186803b15801561064157600080fd5b505afa158015610655573d6000803e3d6000fd5b505050506040513d602081101561066b57600080fd5b81019080805190602001909291905050509150509392505050565b6000806000809054906101000a900473ffffffffffffffffffffffffffffffffffffffff1690508073ffffffffffffffffffffffffffffffffffffffff166320c13b0b878787876040518563ffffffff167c01000000000000000000000000000000000000000000000000000000000281526004018080602001806020018381038352878782818152602001925080828437600081840152601f19601f8201169050808301925050508381038252858582818152602001925080828437600081840152601f19601f820116905080830192505050965050505050505060206040518083038186803b15801561077a57600080fd5b505afa15801561078e573d6000803e3d6000fd5b505050506040513d60208110156107a457600080fd5b8101908080519060200190929190505050915050949350505050565b6000806000809054906101000a900473ffffffffffffffffffffffffffffffffffffffff1690508073ffffffffffffffffffffffffffffffffffffffff1663acfc5eb16040518163ffffffff167c010000000000000000000000000000000000000000000000000000000002815260040160206040518083038186803b15801561084957600080fd5b505afa15801561085d573d6000803e3d6000fd5b505050506040513d602081101561087357600080fd5b81019080805190602001909291905050509150509056fea165627a7a723058205d5849e415a224138a5f053497bc795796982f1779c896f3d029d459f292849d0029",
  "source": "pragma solidity ^0.5.4;\n\ncontract TestContractCalls {\n\n    address ExampleNiftyWalletAddress = 0x72947f7e561e66E902D9210d6f7261DD06A2Ec96;\n\n    function onERC721Received(address add1, address add2, uint256 id, bytes memory dat) public view returns (bytes4) {\n        NiftyWallet new_c = NiftyWallet(ExampleNiftyWalletAddress);\n        return (new_c.onERC721Received(add1, add2, id, dat));\n    }\n\n    function add() public view returns(address) {\n        NiftyWallet new_c = NiftyWallet(ExampleNiftyWalletAddress);\n        return (new_c.retAdd());\n    }\n\n    function isValidSignature(bytes calldata hash, bytes calldata signature) external view returns (bytes4) {\n        NiftyWallet new_c = NiftyWallet(ExampleNiftyWalletAddress);\n        return (new_c.isValidSignature(hash, signature));\n    }\n\n    function isValidSignature(bytes32 hash, bytes calldata signature) external view returns (bool) {\n        NiftyWallet new_c = NiftyWallet(ExampleNiftyWalletAddress);\n        return (new_c.isValidSignature(hash, signature));\n    }\n\n}\n\ncontract NiftyWallet {\n    function onERC721Received(address, address, uint256, bytes memory) public view returns (bytes4);\n    function isValidSignature(bytes32 hash, bytes calldata signature) external view returns (bool);\n    function isValidSignature(bytes calldata hash, bytes calldata signature) external view returns (bytes4);\n    function retAdd() external view returns (address);\n}\n",
  "sourcePath": "/Users/duncancockfoster/Desktop/Coding_projects/NiftyWallet/contracts/TestContractCalls.sol",
  "compiler": {
    "name": "solc",
    "version": "0.5.4+commit.9549d8ff.Emscripten.clang"
  },
  "schemaVersion": "3.0.6",
  "updatedAt": "2019-04-21T06:03:50.331Z",
  "devdoc": {
    "methods": {}
  },
  "userdoc": {
    "methods": {}
  }
}